:0600000000308A00AA286E
:10000800F30003088301BD000408BE000A08BF000E
:100018008A017408C8007E08C7007F08C500440824
:10002800C6007508C9007608D1007708D00078089E
:10003800CC007908CF007A08CD007B08CA007C087C
:10004800CB007D08CE004008C2004108C3008301F0
:100058008C1D83288316941A6B28141D432823307B
:10006800F40083122208C10021080A128A11CE2046
:100078000A128A1124089300141603307728831271
:100088001308A500A50178281308A40002307728D2
:100098001308A300240E0F39A60026072D3E84005E
:1000A80083130008A100840A0008A2000430A500F8
:1000B8002330F4002208C10021080A128A11CE2038
:1000C8000A128A11782823089300141676288312B6
:1000D8002508003A03194828023A03194C28013A1E
:1000E800031967280430A500941B7C28141F822854
:1000F800941314131308A5000430A5008C114808A4
:10010800F4004708FE004508FF004608C4004908F7
:10011800F5005108F6005008F7004C08F8004F08A1
:10012800F9004D08FA004A08FB004B08FC004E088D
:10013800FD004208C0004308C1003E0884003F0893
:100148008A003D088300F30E730E090020308400F6
:100158002D30BC200030C100E430C0002D308400B8
:100168003D30C1200A128A11BD2A04068001840A82
:100178000406031DB92864000034F4000A128A1129
:10018800D1200A128A118000840A0408740603190F
:100198000034C22883120313C000C11BDC28411B92
:1001A800E42841088A004008C00A0319C10A8200ED
:1001B8008313411883174008C00A84000008080008
:1001C8008034033484340334903403348C3403345B
:1001D8007C3403348834033474340334783403347B
:1001E800840183120313C401FC01FD01FE01FF0118
:1001F800780879047A047B0403190529C030C405FA
:100208001029F401F501F601F70170290310F80D22
:10021800F90DFA0DFB0DC40AFB1F0A29C40A0310C5
:10022800FC0DFD0DFE0DFF0D7B087702031D262931
:100238007A087602031D262979087502031D2629E6
:1002480078087402031C38297C147808F4027908A9
:10025800031C790FF5027A08031C7A0FF6027B0853
:10026800031C7B0FF7020310FB0CFA0CF90CF80CBB
:10027800C40344083F39031D1329441F50290310A0
:10028800FF30F407F409031CF507F509031CF6070A
:10029800F609031CF707F7097408F8007508F90050
:1002A8007608FA007708FB007C08F4007D08F50062
:1002B8007E08F6007F08F700C41F70290310FF307E
:1002C800F407F409031CF507F509031CF607F609FA
:1002D800031CF707F7097029840803190034770805
:1002E80080008403760880008403750880008403F6
:1002F800740880000034F400F8010310FD3075071D
:10030800031CA629F701F0307505031D8E2904305A
:10031800F700F50EF6010310F70AF50D031C9029F6
:10032800F50C750874020318F400F60DF70B942900
:10033800F81FA029F609F60A7608F81F0800F4093C
:10034800F40A0800F50C0318AF29F50C031CF40196
:100358000310F40C031C03107408F600F401F40DE8
:100368009C29FA01F801F90176087704031DBF29D1
:10037800F401F50100341F30FA040310FA0AF60DEF
:10038800F70D031CC229F70CF60C77087502031D3C
:10039800CF2976087402031CD7297608F402770857
:1003A800031C770AF502F80DF90DFA0BFA1AC7299A
:1003B800FA1FE329F809F80A0319F903F909780873
:1003C800F6007908F7007A1F0034F409F40A0319D3
:1003D800F503F509003410308301A60012110C3022
:1003E80097009D00282A2608F8002708F900FA0136
:1003F800FB01C030F400C630F5002D30F6000030A7
:10040800F7010A128A11F4207408A7007508A800D9
:100418002608F600F7012708F4002808F5000A1254
:100428008A11B5210A128A117808A7007908A8004C
:10043800270383169200413012020318312A031051
:100448008312A60C0310A60CA6080319312AF72953
:1004580001302F2A023092003D2A83122608013AE1
:1004680003193C2A053A03192C2A143A03192E2A8F
:100478009201831607118710831212150800830151
:10048800AB00AB08031D5C2A2A08F5002908F40014
:10049800750DF50CF40C750DF50CF40C740895003D
:1004A80029080339AC002C0EF0390C3897000800E5
:1004B8002A08F5002908F400750DF50CF40C750DE3
:1004C800F50CF40C74089B0029080339AC002C0EB9
:1004D800F0390C389D0008008301A70084008313BD
:1004E8000008F400840A0008F5000A30F600750DCB
:1004F800F50CF40CF60B7B2A7408A8000330A80549
:100508002708840083130008A900840A0008AA00A9
:100518002808432A83011211FF30831692000C30F9
:10052800831297009D0083160711871083121215F6
:1005380008003F3083160313940536308312940065
:10054800C630831693008C150B178B17831208007F
:10055800C13083019F00053083169F00FF3085005E
:10056800F0308600FF308700831286008500870000
:100578000800AC229D220430A5008E222D08A1007F
:100588002E08A200C62A8301A7008400831300084E
:10059800F400840A0008F5000A30F600750DF50C21
:1005A800F40CF60BD22A7408A8000330A805C13051
:1005B8009F002808A9000310A90D0310A90D031016
:1005C800290D9F04080083012708A600F22AA60324
:1005D8005430A0000000A00BEE2A6400013026026F
:1005E8000318EB2A0330F50026080A128A117F2126
:1005F8000A128A11A0000000A00BFF2A080083013C
:10060800A6000430A7005330A0000000A00B092B5F
:100618006400A70B072BA60B052B08008301A60077
:100628000430A700FA3003236400A70B162BA60B8F
:10063800142B080004308301A6005330A0000000EA
:10064800A00B232B6400A60B212BFF30A607031C4D
:10065800A70327082604031908001E2B8301A700F7
:100668001F151F19352B1E08A800A901270884008B
:10067800831328088000840A290880000800830161
:10068800A7000608F039A800A901270884008313E9
:1006980028088000840A2908800008008301A60031
:1006A8000430A7005330A0000000A00B582BA70B64
:1006B800562BA60B542B08008301A700F0308605A3
:1006C80027088400831300080F3986040800830173
:1006D800A700840083135B308000840A800108002F
:1006E80074080A128A11602B74080A128A11432BA3
:1006F80074080A128A11702A74080A128A11942B33
:1007080074080A128A116B2B74080A128A11962B24
:1007180074080A128A11322B74080A128A11C72A1D
:080728008301080083010800B1
:02400E00BA3FB7
:00000001FF
