:020000040000FA
:1000000000308A002228FF3FFF0003088301DE0042
:100010000A08DF008A010B1D192883120313AE0B97
:100020001828B40A0319B50A7B30AE00AD01AD0A39
:100030000B11031383125F088A005E088300FF0E12
:100040007F0E09002C3084005E302F20A030840009
:10005000DD302F208A15062F04068001840A04064D
:10006000031D2C286400003483120313E000E11BFD
:100070004228611B4A2861088A006008E00A0319C7
:10008000E10A82008313611883176008E00A840084
:100090000008080000340034003400340034003418
:1000A00000342F3400340034003407340034073473
:1000B000003414347F3414347F34143424342A3418
:1000C0007F342A341234C434C834103426344634CD
:1000D0003634493455342234503400340534033432
:1000E0000034003400341C342234413400340034F1
:1000F000413422341C340034143408343E3408347F
:100100001434083408343E340834083400340034DD
:100110005034303400340834083408340834083497
:100120000034603460340034003420341034083437
:10013000043402343E345134493445343E340034BE
:1001400042347F34403400344234613451344934D1
:1001500046342134413445344B343134183414346A
:1001600012347F341034273445344534453439341F
:100170003C344A344934493430340134713409341C
:10018000053403343634493449344934363406347A
:100190004934493429341E3400343634363400347A
:1001A0000034003456343634003400340834143407
:1001B00022344134003414341434143414341434D8
:1001C00000344134223414340834023401345134BC
:1001D0000934063432344934593451343E347E348F
:1001E0001134113411347E347F3449344934493464
:1001F00036343E3441344134413422347F34413446
:10020000413422341C347F34493449344934413434
:100210007F3409340934093401343E3441344934DB
:1002200049347A347F340834083408347F34003455
:1002300041347F34413400342034403441343F343D
:1002400001347F3408341434223441347F34403450
:100250004034403440347F3402340C3402347F3430
:100260007F340434083410347F343E344134413414
:1002700041343E347F3409340934093406343E3481
:100280004134513421345E347F34093419342934F3
:100290004634463449344934493431340134013424
:1002A0007F34013401343F344034403440343F34EF
:1002B0001F342034403420341F343F344034383429
:1002C00040343F3463341434083414346334073412
:1002D00008347034083407346134513449344534B7
:1002E000433400347F344134413400340234043424
:1002F0000834103420340034413441347F34003425
:100300000434023401340234043440344034403480
:100310004034403400340134023404340034203496
:1003200054345434543478347F344834443444346A
:100330003834383444344434443420343834443445
:10034000443448347F3438345434543454341834B6
:1003500008347E340934013402340C3452345234BB
:1003600052343E347F340834043404347834003456
:1003700044347D34403400342034403444343D34FB
:1003800000347F3410342834443400340034413491
:100390007F34403400347C340434183404347834EA
:1003A0007C340834043404347834383444344434E9
:1003B000443438347C341434143414340834083459
:1003C0001434143418347C347C3408340434043445
:1003D00008344834543454345434203404343F34CE
:1003E0004434403420343C344034403420347C3471
:1003F0001C342034403420341C343C3440343034F9
:1004000040343C34443428341034283444340C34DC
:100410005034503450343C344434643454344C34C8
:1004200044340034003400340034003400340034E8
:10043000003400340034003400340034003400341C
:10044000003400340034003400340034003400340C
:100450000034003457340034563400346D344134A1
:100460000034203456346F346C3474347334203494
:100470000034203441346D3470347334203400340B
:10048000203456346F346C34743473342034203454
:1004900041346D3470347334203420344C346F3430
:1004A0006134643420340034203420342034203447
:1004B000203420342034203420342034203420349C
:1004C00020342034203420342034203420340034AC
:1004D00084018312E201A801A901AA01AB01240849
:1004E0002504260427040319782AC030E205832A4C
:1004F000A001A101A201A301E32A0310A40DA50DEF
:10050000A60DA70DE20AA71F7D2AE20A0310A80D77
:10051000A90DAA0DAB0D27082302031D992A260851
:100520002202031D992A25082102031D992A240865
:100530002002031CAB2A28142408A0022508031C4F
:10054000250FA1022608031C260FA2022708031C60
:10055000270FA3020310A70CA60CA50CA40CE20302
:1005600062083F39031D862A621FC32A0310FF3029
:10057000A007A009031CA107A109031CA207A20947
:10058000031CA307A3092008A4002108A500220832
:10059000A6002308A7002808A0002908A1002A080F
:1005A000A2002B08A300E21FE32A0310FF30A007DC
:1005B000A009031CA107A109031CA207A209031C8F
:1005C000A307A309E32A8408031900342308800041
:1005D000840322088000840321088000840320080B
:1005E0008000003483120313A601A11FFE2AA00974
:1005F000A00A0319A103A1092617A6172308803909
:10060000A606A31F462BA209A20A0319A303A30946
:10061000462B83120313A00083120313A4010310BB
:10062000FD302107031C342BA301F0302105031DED
:100630001C2B0430A300A10EA2010310A30AA10DDC
:10064000031C1E2BA10C210820020318A000A20DE0
:10065000A30B222BA41F2E2BA209A20A2208A41F3F
:100660000800A009A00A0800A10C03183D2BA10C4A
:10067000031CA0010310A00C031C03102008A200FF
:10068000A001A00D2A2B83120313A601A401A5012A
:1006900022082304031D4F2BA001A10100341F30A9
:1006A000A6040310A60AA20DA30D031C522BA30C33
:1006B000A20C23082102031D5F2B22082002031C29
:1006C000672B2208A0022308031C230AA102A40D01
:1006D000A50DA60BA61A572BA61F732BA409A40AB7
:1006E0000319A503A5092408A2002508A300261FB5
:1006F0000034A009A00A0319A103A109003482074C
:100700005034493443342034503453345534203435
:10071000563431342E343534313400348207AE341B
:10072000AA34BA348034BE34AA34A2348034823439
:10073000BE3482348034FF3FFF3FFF3FFF3FFF3F27
:10074000FF3FFF3FFF3FFF3FFF3FFF3FFF3FFF3FB9
:10075000FF3FFF3FFF3FFF3FFF3FFF3FFF3FFF3FA9
:10076000FF3FFF3FFF3FFF3FFF3FFF3FFF3FFF3F99
:10077000FF3FFF3FFF3FFF3FFF3FFF3FFF3FFF3F89
:10078000FF3FFF3FFF3FFF3FFF3FFF3FFF3FFF3F79
:10079000FF3FFF3FFF3FFF3FFF3FFF3FFF3FFF3F69
:1007A000FF3FFF3FFF3FFF3FFF3FFF3FFF3FFF3F59
:1007B000FF3FFF3FFF3FFF3FFF3FFF3FFF3FFF3F49
:1007C000FF3FFF3FFF3FFF3FFF3FFF3FFF3FFF3F39
:1007D000FF3FFF3FFF3FFF3FFF3FFF3FFF3FFF3F29
:1007E000FF3FFF3FFF3FFF3FFF3FFF3FFF3FFF3F19
:1007F000FF3FFF3FFF3FFF3FFF3FFF3FFF3FFF3F09
:100800008207FC34FC3403340334C334C33433343C
:100810003334FC34FC340F340F3433343334303459
:100820003034303430340F340F34003400340C346E
:100830000C34FF34FF34003400340034003400340E
:100840000034303430343F343F34303430340034CA
:1008500000340C340C340334033403340334C33411
:10086000C3343C343C34303430343C343C343334A2
:1008700033343034303430343034033403340334DC
:10088000033433343334CF34CF34033403340C34AF
:100890000C343034303430343034303430340F347D
:1008A0000F34C034C034303430340C340C34FF34A2
:1008B000FF3400340034033403340334033403348A
:1008C00003343F343F34033403343F343F34333450
:1008D00033343334333433343334C334C3340C34E7
:1008E0000C343034303430343034303430340F342D
:1008F0000F34F034F034CC34CC34C334C334C33488
:10090000C334003400340F340F34303430343034D6
:100910003034303430340F340F340F340F34033468
:10092000033403340334C334C3343F343F3400341A
:100930000034003400343F343F3400340034003499
:1009400000343C343C34C334C334C334C334C334C0
:10095000C3343C343C340F340F343034303430340E
:100960003034303430340F340F343C343C34C334FE
:10097000C334C334C334C334C334FC34FC34003410
:10098000003430343034303430340C340C340334EC
:1009900003348301C000DB2C4008CF004208E10093
:1009A0004108C10A0319C20A8A113420D000400844
:1009B0008A155923C0004208E10041088A113420F9
:1009C0008A110038031DCC2C4008080083019701D0
:1009D000900110168E018F01400895004108960085
:1009E0000B3097000C1083160C1083120C11831619
:1009F0000C150B178B178312080083120313A40125
:100A0000A5010310A30CA20C031C0D2D2008A407A4
:100A100021080318210AA5070310A00DA10D220823
:100A2000230403190034012D83014108C0001F2D48
:100A3000C0037E30AF000000AF0B1B2D64000130FF
:100A400040020318182D0310400CAF000000AF0B3C
:100A5000262D080004308301C0007D30AF00000067
:100A6000AF0B2F2D6400C00B2D2DFF30C007031CD2
:100A7000C10341084004031908002A2D83120313FF
:100A8000A000831203130030211820070310A00DCB
:100A90000310A10CA10803190800442D8301C00014
:100AA0000430C1007D30AF000000AF0B542DC10BEE
:100AB000522DC00B502D0800FF3083160313850004
:100AC000C13083129F00803083169F00831208007C
:100AD0008301C000400893008316141C6C2D831200
:100AE000130808008301C0003F30C00540084038AB
:100AF0008A152D2ED8308316031381008B160B1701
:100B0000831208008B128301080083012D0808005E
:100B1000FF3FFF3FFF3FFF3FFF3FFF3FFF3FFF3FE5
:100B2000FF3FFF3FFF3FFF3FFF3FFF3FFF3FFF3FD5
:100B3000FF3FFF3FFF3FFF3FFF3FFF3FFF3FFF3FC5
:100B4000FF3FFF3FFF3FFF3FFF3FFF3FFF3FFF3FB5
:1011D000FF3FFF3FFF3FFF3F8301C600831620080C
:1011E0007F39A13E84008312460880008316A00A3E
:1011F00020087F393C3A031DFF288030A00083126D
:1012000008008301AD013508A1003408A0000800E2
:101210008301C7001030A2000E30A3003508A100E2
:101220003408A0008A1143238A152408C600CA0086
:10123000470849224708023E840083133A30800061
:101240001030A2000E30A3004608A000A1018A11B0
:10125000FD243508A1003408A0002408A002031CC6
:10126000A1032508A1022008C8002108C9003C30BC
:10127000A200A3014908A1004808A0008A11432345
:101280008A152408C600CA004708033E49224708B9
:10129000053E840083133A3080003C30A200A30155
:1012A0003508A1003408A0008A1143238A152008BC
:1012B000CA004708063E49228A154708083E8400AE
:1012C0008313800108008301C700C1309F054708D0
:1012D000C8000310C80D0310C80D0310480D9F046B
:1012E0001930AF000000AF0B72291F151F197629A6
:1012F0001E0808008301C6003C30A200A301460876
:101300006321A000A1018A11FD248A152408A000F0
:101310002508A100080006308301A200A3010230C5
:101320006321A000A1018A11FD248A152408A000D0
:101330002508A100080010308301C80012110C30EC
:1013400097009D00D1294608A4004708A500A601E2
:10135000A7018030A0008430A1001E30A200003020
:10136000A3018A1168222008C9002108CA00480880
:10137000A200A3014908A0004A08A1008A11432342
:101380008A152408C9002508CA004903831692005B
:10139000413012020318DA2903108312C80C03101B
:1013A000C80CC8080319DA29A3290130D82902304A
:1013B0009200E62983124808013A0319E529053A03
:1013C0000319D529143A0319D72992018316071155
:1013D0008710831212150800C0308316031381058D
:1013E000153081040B178B17831208008301D2007C
:1013F000D3015108A200A3015008A1004F08A0008A
:101400008A1143238A152008D4000A305402031C91
:101410000B2A41300C2A3030D4075108A200A30116
:101420004F08A0005008A1008A1143238A15240800
:10143000CF002508D0005308553E8400831354087C
:101440008000D30A50084F040319332AF92953089E
:10145000553E840083130008DD0052088400831386
:101460005D088000D20AD303530F272A08008301A6
:10147000C0004108CF004208D0004308D1003630F8
:10148000F6214008CA003630CB008030CC0040083E
:10149000EB2A8301CB000A304A0203185B2A4B086F
:1014A00084008313303080004A08CF00D0010A3016
:1014B000D1004B0AF6294A08CF00D0010A30D100EA
:1014C0004B08F6298301CF00E030CF070530A2009A
:1014D000A3014F08A000A1018A11FD242508003EA8
:1014E000E10024084A3E0318E10A8A1134208A15D3
:1014F0002C0631260530A200A3014F08A000A1014F
:101500008A11FD240130A4070318A50A2508003E0E
:10151000E10024084A3E0318E10A8A1134208A15A2
:101520002C0631260530A200A3014F08A000A1011E
:101530008A11FD240230A4070318A50A2508003EDD
:10154000E10024084A3E0318E10A8A1134208A1572
:101550002C0631260530A200A3014F08A000A101EE
:101560008A11FD240330A4070318A50A2508003EAC
:10157000E10024084A3E0318E10A8A1134208A1542
:101580002C0631260530A200A3014F08A000A101BE
:101590008A11FD240430A4070318A50A2508003E7B
:1015A000E10024084A3E0318E10A8A1134208A1512
:1015B0002C0631268A152C08312E8301D600560EB2
:1015C0000F3910382D268A1556080F392D268A1501
:1015D0005508B03E2D2E8301CD004A08D5004D0898
:1015E000DD228A15FD2A4C08E1004B08CB0A0319BD
:1015F000CC0A8A1134208A1562224C08E1004B087B
:101600008A1134208A15003803190800F32A83014F
:10161000C900E830A2000330A3004808A100470831
:10162000A0008A1143238A152408CA002508CB008C
:101630004608D5004908DD228A154A08CF004B0824
:10164000D0000A30D1004C30F6214C0862228A15B5
:1016500000304B020A3003194A02031C322B4D089A
:1016600062228A152E306222E830A2000330A300E5
:101670004808A1004708A0008A1143238A152008C2
:10168000CA002108CB0000304B02653003194A0222
:10169000031C572B6430A200A3014B08A1004A0889
:1016A000A0008A1143238A152408303E622A303074
:1016B000622A8301D1001430A10050088A113E250E
:1016C0008A15013ED3000430D4004F08D5005108DC
:1016D000DD22D2015408E1005308D30A0319D40AC9
:1016E0008A1134208A1531268A15D20A0A3052020C
:1016F000031C6A2B003031268A154F0AD500510889
:10170000DD22D2015408E1005308D30A0319D40A98
:101710008A1134208A1531268A15D20A0A305202DB
:10172000031C822B003031268A1551080B3E08001D
:1017300002308301C8001130C900E830A200033034
:10174000A3004708A1004608A0008A1143232408EB
:10175000CA002508CB000230CF000A30A200A30146
:101760004B08A1004A08A0008A11F2228A15240819
:10177000D00049085923C9000230CF000A30A20026
:10178000A3014B08A1004A08A0008A11F2228A1581
:101790002008D000490859238A15C9003030312665
:1017A0008A15303031260430C907E830A2000330F2
:1017B000A3004708A1004608A0008A1143238A1508
:1017C0002008CA002108CB00803AA0008030200207
:1017D000653003194A020230CF00031C002C64302C
:1017E000A200A3014B08A1004A08A0008A11F2221E
:1017F0008A152408D000490859238A15C900080011
:10180000D001490859238A15C90008000430830112
:10181000C8000A30CA00E830CD000330CE00C9014C
:101820004E08A3004D08A2004708A1004608A000EA
:101830008A1143232408CB002508CC004808CF0098
:101840000A30A200A3014C08A1004B08A0008A1195
:1018500043238A152008D0004A085923CA000A30B9
:10186000A200A3014D08A0004E08A1008A11432345
:101870008A152408CD002508CE00C90A0430490283
:1018800003180800102C8301C9014908D500003055
:10189000DD228A15C801003031268A15C80A803039
:1018A0004802031C4B2CC90A08304902031C452C72
:1018B000D5010030DD228A15C901FF3031268A1595
:1018C000C90A80304902031C5D2CC901D501D50A23
:1018D0004908DD228A15013031268A150630D500E7
:1018E0004908DD228A15803031268A150730D50057
:1018F0004908DD228A15803031268A15C90A8030D0
:101900004902031C662CC901C90A4908D5000030E8
:10191000DD228A15FF3031268A154908D5007F302F
:10192000DD228A15FF3031268A15C90A083049029E
:10193000031C852CAC010230CA002C30CB000230D5
:10194000CC003630EB220430CA002E30CB000230FF
:10195000CC003630EB2A43248A15C7014708D5004E
:101960004230DD228A15FF3031268A15C70A07303A
:101970004702031CAE2CAC01080043248A15C701A2
:101980004708D5005030DD228A15FF3031268A15F0
:10199000C70A043047024708D5005030031CC32C47
:1019A000DD228A151F3031268A155130C7001030CC
:1019B00031268A15C70A7F304702031CD72CD50170
:1019C000D50A5130DD22C70103308A0047088E2333
:1019D000FF3A8A1531268A15C70A0C304702031CC4
:1019E000E42CAC010230CA002C30CB000230CC0019
:1019F0006B30EB220330CA002F30CB000230CC001A
:101A00006B30EB220530CA002A30CB000230CC000C
:101A10006B30EB2A83160313A01F132D20087F3988
:101A20008312C800152D8312C801C9010630D500E4
:101A30004908433EDD228A15803031268A1505305B
:101A4000D5004908433EDD228A15003031263C305E
:101A5000A10048088A1109238A152008A13E8400A4
:101A600083130008C7008030CA0047080739A00068
:101A7000A00A3C2D0310CA0CA00B3A2D4A08C60040
:101A800008304702031CC6174708CA000310CA0CD7
:101A90000310CA0C03104A0C063CD5004908433E0B
:101AA000DD228A15460831268A15C90AC80A3C3043
:101AB000490203180800162D80308301AC0007305E
:101AC000CA005430CB000230CC000630EB22FF308D
:101AD000AC00822D0730CA003130CB000230CC0080
:101AE0000630EB2A0730CA003930CB000230CC0078
:101AF0000630EB2A0730CA004D30CB000230CC0054
:101B00000630EB2A3008003A03196A2D013A03190E
:101B1000722D033A031D08007A2D7B308301AE003D
:101B2000B401B5018B1608008301C900C908031D63
:101B3000AD2D4808A1004708A000210DA10CA00C64
:101B4000210DA10CA00C2008950047080339CA00FC
:101B50004A0EF0390C38970008004808A1004708E1
:101B6000A000210DA10CA00C210DA10CA00C20089F
:101B70009B0047080339CA004A0EF0390C389D0013
:101B80000800D42D320A03190800B20A3208C7002F
:101B9000C8010130942D310A03190800B10A310837
:101BA000C700C8010030942D831203133008003A97
:101BB0000319C22D013A0319CB2D033A031D080066
:101BC000CB2DF52D17303202031C0800B20332086A
:101BD000C700C8010130942DB10803190800B103F2
:101BE0003108C700C8010030942D83120313300858
:101BF000003A0319E22D013A0319EC2D033A031DB3
:101C00000800EC2D8301C7000609470507390800C5
:101C10000430022600380319112EE1258A151430EC
:101C2000B30001300226003803191A2EC1258A1587
:101C30001430B300023002260038031908007D2E4C
:101C400083010609073908008301D800580893006A
:101C50008316141C282E831208008301D700071254
:101C6000242E8301D5000716242E8301C7000430DB
:101C7000C8007D30AF000000AF0B3B2E6400C80BE6
:101C8000392EC70B372E08008301C0000430C10075
:101C9000FA3035266400C10B482EC00B462E0800D2
:101CA00083010713FF302D268A15FA3035260717D2
:101CB000A0302D268A15C8302D268A15A3302D2652
:101CC0008A152C302D268A15023035262E302D26E9
:101CD0008A15023035262F302D268A1527302D26DD
:101CE0008A1581302D268A1526302D268A15AF308B
:101CF0002D268A15D5010030DD2A83013008C60063
:101D00008B12830106128030AC000730CA004030CD
:101D1000CB000230CC000630EB22902E0A30352664
:101D200020260038031D8E2EFF30AC000430022622
:101D300000380319A52EB0010730CA003130CB009E
:101D40000230CC000630EB22CC2E023002260038C6
:101D50000319B52EB001B00A0730CA003930CB00E4
:101D60000230CC003030EB22CC2E0130022600387D
:101D70000319962E0230B0000730CA004D30CB0058
:101D80000230CC005430EB22B10106163108C700F6
:101D9000C801003094258D25300846060319E72E2A
:101DA0004608023A031DDC2E300BD72EDA2EB0087F
:101DB000031DDC2EBD248A153008023A031DE72ED0
:101DC000460BE32EE62EC608031DE72EAB24FA30A1
:101DD0003526202600380319EF2E0A30E82E5C2D18
:101DE0008316031394013230831294000800830198
:101DF000C600C6080319002F063083169F00042F63
:101E0000C1309F0083169F01831208000030F7261F
:101E1000C1309F00033083169F008113FF3085007F
:101E2000EF30860081308700FF3083128600F02675
:101E300050268A15EC211630B200B1014430C6009C
:101E40007A30C7009B213108C700C80100309425B3
:101E50003208C700C80101309425B00143248A1517
:101E6000BD248A15FF30AC00CA018030CB0003309E
:101E7000CC001630EB225C258A1506121430B30014
:101E800006303302B30A031CFB2F00307A218A1577
:101E90002008C0002108C1008B212008C2002108B1
:101EA000C3006430A200A3014108A1004008A000C3
:101EB0008A1143232408C4002508C5000A30A20063
:101EC000A3014308A1004208A0008A11432324086B
:101ED000A2002508A3004408A0004508A1008A111B
:101EE000FD248A152408C4002508C5004008C60042
:101EF0004108C70098238A154208C6004308C70056
:101F000006243008023A0319BE2FAC010530C60082
:101F10004408C7004508C800583007238A155730C1
:101F200062228A15203062220230C6003C30A200B4
:101F3000A3013208A000A1018A11FD248A152408FA
:101F4000C7002508C800583007238A15563062227A
:101F50008A15203062220330C6000630A200A30199
:101F60003108A000A1018A11FD248A152408C700A8
:101F70002508C800583007238A15FA2F2D080319A1
:101F8000FA2FAC010230C6004408C7004508C8005B
:101F9000453007238A15573062228A152030622285
:101FA0008A150330D5004530DD228A1536300821E8
:101FB0008A150330CA003630CB008030CC00453063
:101FC000EB223C30A2000030A30101218A11F22251
:101FD0008A1521082004031DFA2F6430A200A301F2
:101FE0004308A1004208A0008A1143238A1524084F
:101FF000EC200A25B30108268A1514303526402F17
:02400E00BA3FB7
:08400000FF3FFF3FFF3FFF3FC0
:00000001FF
